:0400000002001132B7
:03000B000200727E
:08006A00E4F508F50902000E9F
:03000E0002008667
:20007200C0E0C0D074012508F508E43509F509D0D0D0E032758903758C00758A00D2A9D2AF
:060092008CD2AF80FE22BB
:06004000E4787FF6D8FD14
:20001E007900E94400601B7A0090009C780175A000E493F2A308B8000205A0D9F4DAF275EC
:02003E00A0FF21
:200046007800E84400600A790175A000E4F309D8FC7800E84400600C7900900001E4F0A3B8
:04006600D8FCD9FAEF
:0D001100758109120098E582600302000E5F
:04009800758200224B
:00000001FF
